:100000000C941A000C9430000C9430000C943000C6
:100010000C9430000C9430000C9430000C943000A0
:100020000C9430000C9430000C9430000C94300090
:100030000C94300011241FBECFE5D2E0DEBFCDBF4F
:1000400010E0A0E6B0E0E2ECFDE003C0C895319618
:100050000D92A836B107D1F70E9432000C94DF064A
:100060000C940000DF93CF93CDB7DEB72F970FB678
:10007000F894DEBF0FBECDBFE7E3F0E08FEF8083E3
:100080001F8683C0E8E3F0E08F85808380E090E006
:10009000AAE7B4E48B879C87AD87BE876B857C8598
:1000A0008D859E8520E030E04AE755E40E94E2021B
:1000B000B92FA82F972F862F8F839887A987BA8764
:1000C0006F81788589859A8520E030E040E85FE39C
:1000D0000E945B0488232CF481E090E09E838D8352
:1000E00047C06F81788589859A8520E03FEF4FE78B
:1000F00057E40E94ED0318167CF56B857C858D8591
:100100009E8520E030E040E251E40E94E202B92FF7
:10011000A82F972F862F682F792F8A2F9B2F0E9429
:10012000CA00B92FA82F972F862F9E838D830FC0CB
:1001300080E991E09C838B838B819C810197F1F70F
:100140009C838B838D819E8101979E838D838D817E
:100150009E81009769F716C06F81788589859A8599
:100160000E94CA00B92FA82F972F862F9E838D83B8
:100170008D819E819A83898389819A810197F1F784
:100180009A8389838F858F5F8F878F858F3F09F053
:1001900079CF76CFEF92FF920F931F93E62EF72E33
:1001A000082F192F20E030E040E05FE40E94240493
:1001B0008823ACF0912F802F7F2D6E2D20E030E032
:1001C00040E05FE40E9474020E949204262F372FC1
:1001D000482F592F20503040404050480AC0912F9E
:1001E000802F7F2D6E2D0E949204262F372F482FAF
:1001F000592F622F732F842F952F1F910F91FF90EE
:10020000EF900895A0E0B0E0E8E0F1E00C94A706DC
:10021000A82FB92F462E572EE42FF52F9C91923000
:1002200008F45BC1C62FD72F8881823008F453C1F0
:10023000943069F4843009F050C111969C91119763
:100240008981981709F449C1A0E6B0E046C184301D
:1002500009F441C18230E1F4923009F03EC1242F0B
:10026000352F4A2F5B2F88E0C42FD52F09904C2FB4
:100270005D2FC22FD32F09922C2F3D2F8150A1F734
:10028000C42DD52D898111969C918923818320C10C
:10029000923009F420C112962D903C901397C62FEE
:1002A000D72F8A819B811496AD90BD90CD90DC9024
:1002B0001797EC80FD800E811F81222D332D281B86
:1002C000390B622F732F37FF04C066277727621B15
:1002D000730B603271050CF06AC0121613068CF5B0
:1002E0006E2C7F2C802E912E062E04C0969487941F
:1002F000779467940A94D2F721E030E040E050E030
:1003000004C0220F331F441F551F6A95D2F7215096
:100310003040404050402E213F21402351232115A1
:1003200031054105510521F021E030E040E050E089
:10033000E22EF32E042F152FE628F7280829192975
:1003400044C0232B09F441C0260E371E6A2C7B2C97
:100350008C2C9D2C062E04C09694879477946794D9
:100360000A94D2F721E030E040E050E004C0220FD0
:10037000331F441F551F6A95D2F72150304040402B
:1003800050402A213B214C215D2121153105410599
:10039000510521F021E030E040E050E0A22EB32EE4
:1003A000C42ED52EA628B728C828D9280EC0821555
:1003B00093053CF0282E392EAA24BB24CC24DD241E
:1003C00004C0EE24FF240027112711969C91A42D30
:1003D000B52D11968C91981709F44CC0992349F0CA
:1003E000512F402F3F2D2E2D2A193B094C095D0915
:1003F00008C05D2D4C2D3B2D2A2D2E193F09400B99
:10040000510B57FD08C01182338222822483358329
:10041000468357831EC081E08183338222828827EE
:100420009927AA27BB27821B930BA40BB50B8483A8
:100430009583A683B7830DC0220F331F441F551F1A
:1004400024833583468357838281938101979383E5
:1004500082832481358146815781B52FA42F932F24
:10046000822F0197A109B1098F5F9F4FAF4FBF4303
:1004700018F30BC0918333822282EA0CFB1C0C1D03
:100480001D1DE482F5820683178383E08083248127
:1004900035814681578157FF1BC0822F932FAA2792
:1004A00097FDA095BA2F81709070A070B07056958E
:1004B000479537952795822B932BA42BB52B8483B7
:1004C0009583A683B78382819381019693838283E8
:1004D000AE2FBF2F02C0A42DB52D8A2F9B2FCDB7D5
:1004E000DEB7E2E10C94C306A0E2B0E0EAE7F2E096
:1004F0000C94B30669837A838B839C832D833E831C
:100500004F835887E9E0EE2EF12CEC0EFD1E8C2F68
:100510009D2F01966E2D7F2D0E94CF050C2F1D2F34
:100520000F5E1F4F8C2F9D2F0596602F712F0E94FD
:10053000CF058A8991E089278A8B8E2D9F2D602F88
:10054000712F4C2F5D2F475E5F4F0E9402010E946A
:10055000EA04A096E6E00C94CF06A0E2B0E0E3EB5C
:10056000F2E00C94B30669837A838B839C832D839A
:100570003E834F835887F9E0EF2EF12CEC0EFD1EE1
:100580008C2F9D2F01966E2D7F2D0E94CF050C2F55
:100590001D2F0F5E1F4F8C2F9D2F0596602F712FE3
:1005A0000E94CF058E2D9F2D602F712F4C2F5D2F18
:1005B000475E5F4F0E9402010E94EA04A096E6E0B7
:1005C0000C94CF06A0E2B0E0E8EEF2E00C94A706AF
:1005D00069837A838B839C832D833E834F835887E3
:1005E0008C2F9D2F01966C2F7D2F675F7F4F0E9470
:1005F000CF058C2F9D2F05966C2F7D2F6F5E7F4F23
:100600000E94CF059985923088F089898230D0F098
:10061000943019F4823051F404C0843029F49230BB
:1006200089F480E690E0D3C0923051F420E09A85BE
:100630008A89981321E02A878C2F9D2F0996C7C09D
:10064000823051F420E09A858A89981321E02A8B20
:100650008C2F9D2F4196BBC02D843E844F8458889B
:100660006D887E888F88988CEE24FF2400271127C0
:10067000AA24BB24CC24DD2440E050E060E070E0FC
:10068000E0E0F0E0822D932D81709070892B09F1CC
:10069000E60CF71C081D191D242F352F462F572F48
:1006A0002A0D3B1D4C1D5D1D80E090E0A0E0B0E0F8
:1006B000E614F7040805190520F481E090E0A0E0B5
:1006C000B0E0752F642F532F422F480F591F6A1F18
:1006D0007B1FAA0CBB1CCC1CDD1C97FE08C081E054
:1006E00090E0A0E0B0E0A82AB92ACA2ADB2A319615
:1006F000E032F10549F0660C771C881C991C569471
:10070000479437942794BECFFA85EA892B893C8990
:100710008B859C85280F391F2E5F3F4F18C0842F73
:10072000952F81709070892B61F016950795F7943D
:10073000E79480E090E0A0E0B0E8E82AF92A0A2BEC
:100740001B2B76956795579547952F5F3F4F77FD04
:10075000E6CF0CC0440F551F661F771F17FD416081
:10076000EE0CFF1C001F111F21503040403090E064
:10077000590790E0690790E4790760F32B8F3C8F6D
:10078000B72FA62F952F842F8F779070A070B07001
:1007900080349105A105B10561F447FD0AC0E1145B
:1007A000F1040105110529F0405C5F4F6F4F7F4F49
:1007B00040781A8EFE1711F081E08A8F4D8F5E8F80
:1007C0006F8F78A383E0898F8C2F9D2F49960E948D
:1007D000EA04A096E2E10C94C306A8E1B0E0E3EFDE
:1007E000F3E00C94B30669837A838B839C832D8317
:1007F0003E834F83588789E0E82EF12CEC0EFD1ED6
:100800008C2F9D2F01966E2D7F2D0E94CF050C2FD2
:100810001D2F0F5E1F4F8C2F9D2F0596602F712F60
:100820000E94CF058985823050F08989823038F066
:100830008E2D9F2D602F712F0E944B0601C08FEFD0
:100840006896E6E00C94CF06A8E1B0E0EAE2F4E0B6
:100850000C94B30669837A838B839C832D833E83B8
:100860004F83588789E0E82EF12CEC0EFD1E8C2F6B
:100870009D2F01966E2D7F2D0E94CF050C2F1D2FD1
:100880000F5E1F4F8C2F9D2F0596602F712F0E949A
:10089000CF058985823050F08989823038F08E2DDD
:1008A0009F2D602F712F0E944B0601C08FEF68961D
:1008B000E6E00C94CF06A8E1B0E0E1E6F4E00C94A9
:1008C000B30669837A838B839C832D833E834F8316
:1008D000588789E0E82EF12CEC0EFD1E8C2F9D2F01
:1008E00001966E2D7F2D0E94CF050C2F1D2F0F5EC0
:1008F0001F4F8C2F9D2F0596602F712F0E94CF05C3
:100900008985823050F08989823038F08E2D9F2D74
:10091000602F712F0E944B0601C081E06896E6E0CF
:100920000C94CF06ACE0B0E0E8E9F4E00C94B70634
:1009300069837A838B839C838C2F9D2F01966C2FE8
:100940007D2F6B5F7F4F0E94CF058D81823061F1DB
:10095000823050F1843021F48E81882351F12EC0F1
:100960002F81388537FD20C06E812F3131051CF075
:100970006623F9F023C08EE190E0821B930B29855A
:100980003A854B855C8504C05695479537952795E4
:100990008A95D2F76623B1F0509540953095219510
:1009A0003F4F4F4F5F4F0EC020E030E040E050E03F
:1009B00009C02FEF3FEF4FEF5FE704C020E030E0CA
:1009C00040E050E8622F732F842F952F2C96E2E0A1
:1009D0000C94D306DF92EF92FF920F931F93E82FB0
:1009E000F92FE480F58006811781D18080818230E3
:1009F00048F480E090E0A0E1B0E0E82AF92A0A2B70
:100A00001B2BB2C0843009F4ABC0823029F4EE2431
:100A1000FF240027112705C0E114F1040105110589
:100A200019F4E0E0F0E0A2C0628173819FEF6238C8
:100A300079070CF063C022E83FEF261B370B2A3101
:100A400031052CF020E030E040E050E02EC0712F66
:100A5000602F5F2D4E2D022E04C076956795579519
:100A600047950A94D2F781E090E0A0E0B0E004C09E
:100A7000880F991FAA1FBB1F2A95D2F70197A109BA
:100A8000B1098E219F21A023B1230097A105B105B3
:100A900021F081E090E0A0E0B0E0242F352F462F38
:100AA000572F282B392B4A2B5B2BB52FA42F932F95
:100AB000822F8F779070A070B07080349105A1055F
:100AC000B10539F427FF09C0205C3F4F4F4F5F4FFE
:100AD00004C0215C3F4F4F4F5F4FE0E0F0E020301B
:100AE000A0E03A07A0E04A07A0E45A0710F0E1E0CE
:100AF000F0E0E22EF32E042F152F2AC06038710586
:100B00007CF5E62FF72FE158FF4FB12FA02F9F2D37
:100B10008E2D8F779070A070B07080349105A105F4
:100B2000B10539F4E7FE0DC080E490E0A0E0B0E04C
:100B300004C08FE390E0A0E0B0E0E80EF91E0A1FC9
:100B40001B1F17FF05C016950795F794E79431967C
:100B500087E016950795F794E7948A95D1F706C034
:100B6000EE24FF2400271127EFEFF0E06E2F6795AA
:100B700066276795902F9F77D794DD24D7948E2F83
:100B80008695492F462B582F5D296E2D7F2D842F5A
:100B9000952F1F910F91FF90EF90DF900895E82F10
:100BA000F92FA62FB72F408151812281622F6F77B5
:100BB00070E0221F2227221F9381892F880F822B0A
:100BC000282F30E0991F9927991F11969C93119710
:100BD00021153105B9F5411551056105710511F46E
:100BE00082E039C082E89FEF13969C938E93129710
:100BF000242F352F462F572F67E0220F331F441F16
:100C0000551F6A95D1F783E08C930DC0220F331FD7
:100C1000441F551F12968D919C911397019713961F
:100C20009C938E931297203080E0380780E048072D
:100C300080E4580758F314962D933D934D935C939D
:100C4000179708952F3F310579F441155105610536
:100C5000710519F484E08C93089564FF03C081E06A
:100C60008C9312C01C9210C02F57304013963C93A7
:100C70002E93129783E08C9387E0440F551F661FD5
:100C8000771F8A95D1F7706414964D935D936D9399
:100C90007C93179708951F93A82FB92FE62FF72F4E
:100CA0009C91923008F447C08081823008F443C0A0
:100CB000943051F411961C91843099F58181682FFC
:100CC00070E0611B71093FC0843021F0923031F433
:100CD0008230B9F18181882389F12DC011961C9150
:100CE00011978230F1F081811817D9F412962D9165
:100CF0003C911397828193818217930794F0281770
:100D00003907BCF014968D919D910D90BC91A02D4A
:100D10002481358146815781281739074A075B07A7
:100D200018F4112341F00AC082179307A407B507EE
:100D300040F4112319F061E070E005C06FEF7FEF20
:100D400002C060E070E0862F972F1F9108952F92C8
:100D50003F924F925F926F927F928F929F92AF924B
:100D6000BF92CF92DF92EF92FF920F931F93CF9398
:100D7000DF93CDB7DEB7CA1BDB0B0FB6F894DEBF2F
:100D80000FBECDBF09942A88398848885F846E8455
:100D90007D848C849B84AA84B984C884DF80EE809F
:100DA000FD800C811B81AA81B981CE0FD11D0FB6A8
:100DB000F894DEBF0FBECDBFCA2FDB2F0895F89485
:020DC000FFCF63
:080DC200000000000000000029
:00000001FF
